:020000040800F2
:1000000000500020992B0008351000083710000818
:10001000391000083B1000083D10000800000000E7
:100020000000000000000000000000003F10000879
:1000300041100008000000004310000845100008AF
:10004000E12B0008E12B0008E12B0008E12B000860
:10005000E12B0008E12B0008E12B0008E12B000850
:10006000E12B0008E12B0008E12B0008E12B000840
:100070004D100008E12B0008E12B0008E12B0008DF
:10008000E12B00085D100008E12B0008E12B0008BF
:10009000E12B0008E12B0008E12B0008E12B000810
:1000A000E12B0008E12B0008E12B0008E12B000800
:1000B000E12B0008E12B0008E12B0008E12B0008F0
:1000C000E12B0008E12B0008E12B0008E12B0008E0
:1000D000E12B00086D100008E12B0008E12B00085F
:1000E000E12B0008E12B0008E12B000800000000D4
:1000F0000000000000000000000000000000000000
:0C01000000000000000000005FF808F1A3
:1001100010B5054C237833B9044B13B10448AFF341
:1001200000800123237010BD740000200000000037
:10013000B43E000808B5034B1BB103490348AFF3B5
:10014000008008BD0000000078000020B43E0008D8
:1001500010F8012B11F8013B012A28BF9A42F7D071
:10016000D01A7047034613F8012B002AFBD1181A46
:100170000138704781F0004102E000BF83F0004386
:1001800030B54FEA41044FEA430594EA050F08BF32
:1001900090EA020F1FBF54EA000C55EA020C7FEAF6
:1001A000645C7FEA655C00F0E2804FEA5454D4EB73
:1001B0005555B8BF6D420CDD2C4480EA020281EA3D
:1001C000030382EA000083EA010180EA020281EA75
:1001D0000303362D88BF30BD11F0004F4FEA0131C7
:1001E0004FF4801C4CEA113102D0404261EB4101D6
:1001F00013F0004F4FEA03334CEA133302D052425C
:1002000063EB430394EA050F00F0A780A4F1010417
:10021000D5F1200E0DDB02FA0EFC22FA05F2801851
:1002200041F1000103FA0EF2801843FA05F3594137
:100230000EE0A5F120050EF1200E012A03FA0EFCB6
:1002400028BF4CF0020C43FA05F3C01851EBE371E0
:1002500001F0004507D54FF0000EDCF1000C7EEBFD
:1002600000006EEB0101B1F5801F1BD3B1F5001F3B
:100270000CD349085FEA30004FEA3C0C04F101045A
:100280004FEA445212F5800F80F09A80BCF1004F83
:1002900008BF5FEA500C50F1000041EB045141EA05
:1002A000050130BD5FEA4C0C404141EB0101013CCE
:1002B00028BFB1F5801FE9D291F0000F04BF0146BD
:1002C0000020B1FA81F308BF2033A3F10B03B3F18F
:1002D00020020CDA0C3208DD02F1140CC2F10C021F
:1002E00001FA0CF021FA02F10CE002F11402D8BF7D
:1002F000C2F1200C01FA02F120FA0CFCDCBF41EA49
:100300000C019040E41AA2BF01EB0451294330BD17
:100310006FEA04041F3C1CDA0C340EDC04F11404F4
:10032000C4F1200220FA04F001FA02F340EA0300CB
:1003300021FA04F345EA030130BDC4F10C04C4F111
:10034000200220FA02F001FA04F340EA03002946F1
:1003500030BD21FA04F0294630BD94F0000F83F43B
:10036000801306BF81F480110134013D4EE77FEA1E
:10037000645C18BF7FEA655C29D094EA050F08BF6A
:1003800090EA020F05D054EA000C04BF194610464B
:1003900030BD91EA030F1EBF0021002030BD5FEA8F
:1003A000545C05D14000494128BF41F0004130BDB7
:1003B00014F580043CBF01F5801130BD01F000450B
:1003C00045F0FE4141F470014FF0000030BD7FEA7E
:1003D000645C1ABF194610467FEA655C1CBF0B4679
:1003E000024650EA013406BF52EA033591EA030F90
:1003F00041F4002130BD00BF90F0000F04BF002188
:10040000704730B54FF4806404F132044FF00005BA
:100410004FF0000150E700BF90F0000F04BF002133
:10042000704730B54FF4806404F1320410F0004599
:1004300048BF40424FF000013EE700BF42004FEA94
:10044000E2014FEA31014FEA02701FBF12F07F4311
:1004500093F07F4F81F06051704732F07F4208BFC8
:10046000704793F07F4F04BF41F40021704730B5CF
:100470004FF4607401F0004521F000411CE700BF1B
:1004800050EA010208BF704730B54FF000050AE09E
:1004900050EA010208BF704730B511F0004502D59F
:1004A000404261EB41014FF4806404F132045FEAA1
:1004B000915C3FF4D8AE4FF003025FEADC0C18BF4A
:1004C00003325FEADC0C18BF033202EBDC02C2F13C
:1004D000200300FA03FC20FA02F001FA03FE40EACE
:1004E0000E0021FA02F11444BDE600BF70B54FF0D2
:1004F000FF0C4CF4E06C1CEA11541DBF1CEA1355B0
:1005000094EA0C0F95EA0C0F00F0DEF82C4481EA17
:10051000030621EA4C5123EA4C5350EA013518BF37
:1005200052EA033541F4801143F4801338D0A0FB24
:1005300002CE4FF00005E1FB02E506F00042E0FBD1
:1005400003E54FF00006E1FB03569CF0000F18BFD7
:100550004EF0010EA4F1FF04B6F5007F64F540747F
:1005600004D25FEA4E0E6D4146EB060642EAC62112
:1005700041EA55514FEAC52040EA5E504FEACE2E7F
:10058000B4F1FD0C88BFBCF5E06F1ED8BEF1004F82
:1005900008BF5FEA500E50F1000041EB045170BDFE
:1005A00006F0004646EA010140EA020081EA030142
:1005B000B4EB5C04C2BFD4EB0C0541EA045170BD3E
:1005C00041F480114FF0000E013C00F3AB8014F1B8
:1005D000360FDEBF002001F0004170BDC4F1000401
:1005E000203C35DA0C341BDC04F11404C4F1200582
:1005F00000FA05F320FA04F001FA05F240EA0200DD
:1006000001F0004221F0004110EBD37021FA04F612
:1006100042EB06015EEA430E08BF20EAD37070BDCC
:10062000C4F10C04C4F1200500FA04F320FA05F02B
:1006300001FA04F240EA020001F0004110EBD3702D
:1006400041F100015EEA430E08BF20EAD37070BD9D
:10065000C4F1200500FA05F24EEA020E20FA04F376
:1006600001FA05F243EA020321FA04F001F0004125
:1006700021FA04F220EA020000EBD3705EEA430E96
:1006800008BF20EAD37070BD94F0000F0FD101F0C5
:100690000046400041EB010111F4801F08BF013CFE
:1006A000F7D041EA060195F0000F18BF704703F03C
:1006B0000046520043EB030313F4801F08BF013DC3
:1006C000F7D043EA0603704794EA0C0F0CEA13557F
:1006D00018BF95EA0C0F0CD050EA410618BF52EA39
:1006E0004306D1D181EA030101F000414FF000003F
:1006F00070BD50EA410606BF1046194652EA43064D
:1007000019D094EA0C0F02D150EA013613D195EAC0
:100710000C0F05D152EA03361CBF104619460AD108
:1007200081EA030101F0004141F0FE4141F4700112
:100730004FF0000070BD41F0FE4141F4780170BD02
:1007400070B54FF0FF0C4CF4E06C1CEA11541DBF67
:100750001CEA135594EA0C0F95EA0C0F00F0A7F869
:10076000A4EB050481EA030E52EA03354FEA013196
:1007700000F088804FEA03334FF0805545EA1313A9
:1007800043EA12634FEA022245EA111545EA106571
:100790004FEA00260EF000419D4208BF964244F108
:1007A000FD0404F5407402D25B084FEA3202B61A27
:1007B00065EB03055B084FEA32024FF480104FF4FB
:1007C000002CB6EB020E75EB030E22BFB61A75466F
:1007D00040EA0C005B084FEA3202B6EB020E75EB02
:1007E000030E22BFB61A754640EA5C005B084FEA6A
:1007F0003202B6EB020E75EB030E22BFB61A754637
:1008000040EA9C005B084FEA3202B6EB020E75EB41
:10081000030E22BFB61A754640EADC0055EA060E02
:1008200018D04FEA051545EA16754FEA06164FEA45
:10083000C30343EA52734FEAC2025FEA1C1CC0D1F1
:1008400011F4801F0BD141EA00014FF000004FF07E
:10085000004CB6E711F4801F04BF01430020B4F13F
:10086000FD0C88BFBCF5E06F3FF6AFAEB5EB030CF7
:1008700004BFB6EB020C5FEA500C50F1000041EBF4
:10088000045170BD0EF0004E4EEA113114EB5C04C1
:10089000C2BFD4EB0C0541EA045170BD41F4801194
:1008A0004FF0000E013C90E645EA060E8DE60CEA9C
:1008B000135594EA0C0F08BF95EA0C0F3FF43BAFB9
:1008C00094EA0C0F0AD150EA01347FF434AF95EA70
:1008D0000C0F7FF425AF104619462CE795EA0C0F54
:1008E00006D152EA03353FF4FDAE1046194622E721
:1008F00050EA410618BF52EA43067FF4C5AE50EAFB
:1009000041047FF40DAF52EA43057FF4EBAE12E7EA
:100910004FEA410212F5001215D211D56FF4787327
:10092000B3EB625212D94FEAC12343F0004343EACA
:10093000505311F0004F23FA02F018BF40427047A5
:100940004FF00000704750EA013005D111F000402F
:1009500008BF6FF0004070474FF00000704700BFC5
:1009600010B50446FFF7FEFB642382B2214602481D
:1009700001F0B6FE10BD00BFF401002008B5174B12
:10098000834200D008BD164B1B780D2B0CD0154AA6
:10099000116815484354136801331360012210494C
:1009A0000E4802F0E6F8EDE70E4B19680E480022FB
:1009B00042541A600D4B01221A600D49FFF7C8FB23
:1009C00010B90C4B01221A600B490748FFF7C0FB16
:1009D0000028E3D1074B00221A60DFE7F401002072
:1009E0009C000020A0000020A4000020980000200F
:1009F000CC3E000890000020D43E000872B6FEE70E
:100A000000B591B02822002106A802F013F90023B6
:100A100001930293039304930593012206924FF4EA
:100A2000803307930A9202220D920E934FF4E01343
:100A30000F9306A800F004FF80B90F230193022151
:100A40000291002303934FF480620492059301A85E
:100A500001F028F920B911B05DF804FBFFF7CEFFD3
:100A6000FFF7CCFF0000000038B500F09BFEFFF759
:100A7000C7FF00F02BF900F04BF900F00FFA00F07F
:100A800081FA01F0B3FC0021814800F097FD0421B8
:100A9000804800F093FD8048FFF762FF01227F4904
:100AA0007F4802F066F8E0E004F12D00FFF7B4FCA7
:100AB00075A3D3E90023FFF743FEFFF729FF794B26
:100AC0005863794B18682D30FFF7A6FC6EA3D3E965
:100AD0000023FFF735FEFFF71BFF4FF080439863BD
:100AE000642000F083FE714B1C68002CC0F28380F0
:100AF0006F497048FFF72CFB00285DD004F12D00F2
:100B0000FFF78AFC60A3D3E90023FFF719FEFFF784
:100B1000FFFE644B5863644B18682D30FFF77CFC74
:100B200059A3D3E90023FFF70BFEFFF7F1FE4FF0C7
:100B3000804398630A2000F059FE5C4A1368013B29
:100B40001360002BCFDA584A13680A33136052E05F
:100B5000564B1C68B42CC6DC55495648FFF7F8FACA
:100B60000028A1D004F12D00FFF756FC46A3D3E9DD
:100B70000023FFF7E5FDFFF7CBFE4A4B58634A4BD6
:100B800018682D30FFF748FC3FA3D3E90023FFF797
:100B9000D7FDFFF7BDFE4FF0804398630A2000F0B9
:100BA00025FE424A136801331360B42BD0DD3E4A60
:100BB00013680A33136096E704F12D00FFF72CFC4D
:100BC00031A3D3E90023FFF7BBFDFFF7A1FE354BAF
:100BD0005863354B18682D30FFF71EFC2AA3D3E964
:100BE0000023FFF7ADFDFFF793FE4FF080439863BE
:100BF000642000F0FBFD2C4B1B68862B3CDD2A4B50
:100C00002D221A6038E000242B4B1C602B48FFF784
:100C1000A7FE2B49274802F015F801F0E2FF054630
:100C20002849204602F00EF801F0DBFF044605F1EA
:100C30002D00FFF7F1FB14A3D3E90023FFF780FD9C
:100C4000FFF766FE174B5863642000F0CFFD04F1F8
:100C50002D00FFF7E1FB0CA3D3E90023FFF770FDA4
:100C6000FFF756FE4FF080439863174B1B68002B2D
:100C70003FF46EAF012BF8D10F4B1B68002BF4D063
:100C8000C1E700BFAFF30080CDCCCCCCCCCCFC3FD7
:100C900060010020A8010020DC3E00089C0000202C
:100CA000F4010020002C01400000002094000020EE
:100CB000E43E0008A400002098000020EC3E00085C
:100CC000F43E0008F83E00089000002084B00F4B6E
:100CD0009A6942F010029A619A6902F01002019238
:100CE000019A9A6942F020029A619A6902F0200200
:100CF0000292029A9A6942F004029A619B6903F097
:100D000004030393039B04B0704700BF001002402C
:100D100000B583B00E4B5A6942F001025A615B691B
:100D200003F001030193019B002211460C2001F006
:100D300001FB0C2001F036FB00221146112001F0CE
:100D4000F9FA112001F02EFB03B05DF804FB00BF9F
:100D50000010024010B582B004460368294A93424D
:100D600004D0B3F1804F26D002B010BD264B9A6953
:100D700042F400629A619B6903F400630093009B54
:100D80002248234B036010234360002383608022AA
:100D9000C2604FF4807202614FF4806242618361ED
:100DA000C36101F06DF918B9184B63625C62DBE74F
:100DB000FFF724FEF8E703F50433DA6942F0010295
:100DC000DA61DB6903F001030193019B1148124BC7
:100DD000036010234360002383608022C2604FF4CD
:100DE000807202614FF4806242618361C36101F0ED
:100DF00047F920B9074BA3625C622363B4E7FFF7AE
:100E0000FDFDF7E7002C014000100240D800002053
:100E10001C0002401C0100208000024000B587B089
:100E2000002302930393049305930368184A9342A3
:100E300005D0B3F1804F17D007B05DF804FB154B18
:100E40009A6942F004029A619B6903F004030093DB
:100E5000009B4FF48073029302230393059302A92E
:100E60000D4800F0FBFFE7E703F504339A6942F011
:100E700004029A619B6903F004030193019B02231E
:100E800002930393059302A9034800F0E7FFD3E719
:100E9000002C0140001002400008014010B596B03F
:100EA000002412941394149415941094119409949A
:100EB0000A940B940C940D940E940F9420222146C6
:100EC00001A801F0B7FE2D482D4B036040F29F535F
:100ED0004360846040F2E733C3600461446184612D
:100EE00000F0DAF9002837D14FF48053129312A999
:100EF000224800F0D5FA002831D1204800F0F8F956
:100F000000282FD100231093119310A91B4800F043
:100F1000C3FB50BB6023099300220A920B920C92F0
:100F20000D920E920F9209A9144800F03FFAF8B9F9
:100F30000023019302930393049305934FF400520B
:100F40000692089301A90D4800F0DCFB98B90B4804
:100F5000FFF764FF16B010BDFFF750FDC4E7FFF7C1
:100F60004DFDCAE7FFF74AFDCCE7FFF747FDD1E7A4
:100F7000FFF744FDDCE7FFF741FDE8E760010020F3
:100F8000002C014000B58FB000230A930B930C9303
:100F90000D9308930993019302930393049305938C
:100FA0000693079322484FF08042026040F29F521E
:100FB0004260836040F2E732C2600361836100F007
:100FC0006BF930BB4FF480530A930AA9184800F01C
:100FD00067FA08BB164800F08BF900BB00230893A2
:100FE000099308A9124800F057FBD8B96023019370
:100FF000002302930393059304220DEB02010C4896
:1010000000F0D4F988B90A48FFF708FF0FB05DF87F
:1010100004FBFFF7F3FCD5E7FFF7F0FCDAE7FFF797
:10102000EDFCDBE7FFF7EAFCE0E7FFF7E7FCEAE7C8
:10103000A8010020FEE7FEE7FEE7FEE7FEE77047B7
:101040007047704708B500F0BFFB08BD08B50248FF
:1010500001F0BCF808BD00BFD800002008B5024868
:1010600001F0B4F808BD00BF1C01002008B502481B
:1010700001F020FC08BD00BFF401002082B00E4B3F
:101080009A6942F001029A619A6902F001020092A3
:10109000009ADA6942F08052DA61DB6903F080532A
:1010A0000193019B054A536823F0E06343F000730A
:1010B000536002B0704700BF0010024000000140C2
:1010C00070B4036A026A22F0010202624668826911
:1010D00022F073020C6844EA020523F002028B68D6
:1010E00013430D4CA04209D00B4CA0420DD04660DA
:1010F00085614A684263036270BC704723F008034D
:10110000CA68134323F00403EEE726F440764A69E5
:1011100032438E691643EAE7002C014030B4036A7B
:10112000026A22F4807202624568C26922F0730288
:101130000C68224323F400738C6843EA04230F4CA9
:10114000A04209D00D4CA0420ED04560C2614A6851
:10115000C263036230BC704723F40063CC6843EA87
:10116000042323F48063EDE725F440554C6945EAF8
:1011700004158C6945EA0415E7E700BF002C01401F
:1011800030B4036A026A22F4805202624468C2697F
:1011900022F4E6420D6842EA052223F400538D68EA
:1011A00043EA0533074DA84206D04460C2614A684D
:1011B0000264036230BC704724F480444D6944EA01
:1011C0008514F2E7002C014010B4036A046A24F08D
:1011D00001040462846924F0F00C4CEA021223F04A
:1011E0000A030B438261036210BC704710B4036AA8
:1011F000046A24F010040462846924F4704C4CEAFC
:10120000023223F0A00343EA01138261036210BC9F
:101210007047836823F070030B4343F00703836038
:101220007047704703681B4A90420AD0B0F1804F64
:1012300007D0A2F59432904203D002F5806290422A
:1012400003D123F070034A681343124A90420AD034
:10125000B0F1804F07D0A2F59432904203D002F54E
:101260008062904203D123F44073CA68134323F091
:1012700080034A69134303608B68C3620B6883620F
:10128000044B984202D00123436170470B6903630A
:10129000F9E700BF002C014040B310B5044690F8B8
:1012A0003D30F3B1022384F83D30214651F8040B60
:1012B000FFF7B8FF012384F8463084F83E3084F805
:1012C0003F3084F8403084F8413084F8423084F86C
:1012D000433084F8443084F8453084F83D300020B1
:1012E00010BD80F83C30FFF735FDDBE7012070478B
:1012F00040B310B5044690F83D30F3B1022384F8B2
:101300003D30214651F8040BFFF78CFF012384F890
:10131000463084F83E3084F83F3084F8403084F81A
:10132000413084F8423084F8433084F8443084F803
:10133000453084F83D30002010BD80F83C30FFF788
:1013400070FFDBE70120704730B4036A026A22F0C5
:10135000100202624468826922F4E6420D6842EAA1
:10136000052223F020038D6843EA05130E4DA842A1
:1013700009D00D4DA8420ED0446082614A68826354
:10138000036230BC704723F08003CD6843EA051345
:1013900023F04003EDE724F440644D6944EA8504FA
:1013A0008D6944EA8504E7E7002C014038B590F8E0
:1013B0003C30012B66D004460D46012380F83C30BA
:1013C0000C2A5AD8DFE802F0075959591B595959C4
:1013D0003059595944000068FFF772FE226893693A
:1013E00043F0080393612268936923F00403936137
:1013F0002268936929690B43936100203EE00068ED
:10140000FFF7A2FF2268936943F4006393612268A7
:10141000936923F48063936122689369296943EA9D
:1014200001239361002029E00068FFF777FE22681E
:10143000D36943F00803D3612268D36923F004031E
:10144000D3612268D36929690B43D361002015E079
:101450000068FFF795FE2268D36943F40063D36107
:101460002268D36923F48063D3612268D369296930
:1014700043EA0123D361002000E00120002384F827
:101480003C3038BD0220FCE710B4846824F47F4C63
:1014900042EA03220A4342EA0C02826010BC70470F
:1014A00090F83C30012B78D010B50446012380F829
:1014B0003C30022380F83D300268936823F47F4378
:1014C00023F0770393600B68602B4CD029D8402B16
:1014D00054D00CD9502B22D1CA6849680068FFF754
:1014E00073FE50212068FFF794FE002005E0202BBA
:1014F0000DD009D9302B0AD00120012384F83D30CA
:10150000002384F83C3010BD0BB1102B05D11946D7
:101510002068FFF77EFE0020EFE70120EDE70120C5
:10152000EBE7B3F5805F34D0B3F5005F0CD1CB6847
:101530004A6889680068FFF7A7FF2268936843F448
:10154000804393600020D8E7702B24D1CB684A6891
:1015500089680068FFF798FF2268936843F0770373
:1015600093600020C9E7CA6849680068FFF73EFE3B
:1015700060212068FFF74DFE0020BEE7CA68496879
:101580000068FFF721FE40212068FFF742FE00209F
:10159000B3E70020B1E70120AFE70220704701F078
:1015A0001F01012303FA01FC036A23EA0C0303620F
:1015B000036A02FA01F10B430362704710B5044657
:1015C000084651BB94F83E30DBB2013B18BF012303
:1015D000002B5BD1002839D1022384F83E30012250
:1015E00001462068FFF7DBFF23682A4A93423DD07B
:1015F0002368284A93423ED0B3F1804F3BD0A2F5F6
:101600009432934237D002F58062934233D01A6805
:1016100042F001021A60002039E0042908D00829AC
:101620000DD094F84130DBB2013B18BF0123CFE766
:1016300094F83F30DBB2013B18BF0123C8E794F8B0
:101640004030DBB2013B18BF0123C1E7042805D0BD
:10165000082807D0022384F84130C0E7022384F829
:101660003F30BCE7022384F84030B8E75A6C42F4BC
:1016700000425A64BCE79A6802F00702062A07D0C3
:101680001A6842F001021A60002000E0012010BD3B
:101690000020FCE7002C014090F83C30012B2CD0BE
:1016A00010B4012380F83C30022380F83D300368F9
:1016B0005A689C6822F0700C0A6842EA0C025A6070
:1016C00003680F4A93420AD0B3F1804F07D0A2F5C6
:1016D0009432934203D002F58062934204D124F005
:1016E00080044A6814439C60012380F83D30002345
:1016F00080F83C30184610BC70470220704700BF8D
:10170000002C014090F83C30012B22D0012380F8BE
:101710003C30CB6823F440738A68134323F480631E
:101720004A68134323F400630A68134323F4805385
:101730000A69134323F400534A69134323F4804393
:10174000CA69134302685364002380F83C3018468A
:10175000704702207047000010B504460E4B187801
:101760004FF47A73B3FBF0F30C4A1068B0FBF3F05C
:1017700000F026FE68B90F2C01D901200AE00022F2
:1017800021464FF0FF3000F0D5FD054B1C600020D6
:1017900000E0012010BD00BF040000200C0000206C
:1017A0000800002008B5074A136843F010031360CF
:1017B000032000F0ADFD0F20FFF7CEFFFFF75EFC2A
:1017C000002008BD00200240034A1168034B1B782B
:1017D0000B441360704700BFF0010020040000209C
:1017E000014B1868704700BFF001002038B504466F
:1017F000FFF7F6FF0546B4F1FF3F02D0044B1B781C
:101800001C44FFF7EDFF401BA042FAD338BD00BFD8
:101810000400002082B0084B1B68084AA2FB032387
:101820005B0A00FB03F3019300BF019B5A1E019268
:10183000002BF9D102B070470C000020D34D62108C
:10184000002800F0F18170B582B00446036813F0FF
:10185000010F2CD0994B5B6803F00C03042B1DD0B7
:10186000964B5B6803F00C03082B12D06368B3F54A
:10187000803F41D0002B55D103F1804303F5043361
:101880001A6822F480321A601A6822F480221A60E0
:1018900037E08A4B5B6813F4803FE7D0874B1B68C7
:1018A00013F4003F03D06368002B00F0BF8123686E
:1018B00013F0020F75D0814B5B6813F00C0F5FD0F3
:1018C0007E4B5B6803F00C03082B54D02369002B7C
:1018D00000F08A807A4B01221A60FFF781FF0546EB
:1018E000764B1B6813F0020F75D1FFF779FF401B91
:1018F0000228F5D903209EE1704A136843F480332F
:101900001360636843B3FFF76BFF05466B4B1B68BF
:1019100013F4003FCBD1FFF763FF401B6428F5D9D8
:10192000032088E1B3F5A02F09D0644B1A6822F494
:1019300080321A601A6822F480221A60E1E703F10B
:101940008043A3F53C331A6842F480221A601A6877
:1019500042F480321A60D4E7FFF742FF0546574B46
:101960001B6813F4003FA2D0FFF73AFF401B642826
:10197000F5D903205FE1514B5B6813F4803FA5D19B
:101980004E4B1B6813F0020F03D02369012B40F06C
:101990004F814A4A136823F0F803616943EAC1039F
:1019A0001360236813F0080F33D0A369002B5CD0B9
:1019B000434B0122C3F88024FFF712FF05463F4B3B
:1019C0005B6A13F0020F21D1FFF70AFF401B0228C8
:1019D000F5D903202FE1394A136823F0F803616930
:1019E00043EAC1031360DCE7354B00221A60FFF7BE
:1019F000F7FE0546314B1B6813F0020FD1D0FFF7FD
:101A0000EFFE401B0228F5D9032014E10120FFF767
:101A100001FF236813F0040F00F09680274BDB6969
:101A200013F0805F34D1254BDA6942F08052DA61DD
:101A3000DB6903F080530193019B0125214B1B6857
:101A400013F4807F26D0E368012B3DD0002B53D1C7
:101A500003F1804303F504331A6A22F001021A628B
:101A60001A6A22F004021A6233E0154B0022C3F80E
:101A70008024FFF7B5FE0546104B5B6A13F0020F9A
:101A8000C7D0FFF7ADFE401B0228F5D90320D2E0F6
:101A90000025D3E70B4A136843F480731360FFF704
:101AA0009FFE0646074B1B6813F4807FCBD1FFF7E0
:101AB00097FE801B6428F5D90320BCE0001002408B
:101AC00000004242007000405F4A136A43F0010385
:101AD0001362E36833B3FFF783FE06465A4B1B6A73
:101AE00013F0020F2FD1FFF77BFE801B41F28833EA
:101AF0009842F3D903209EE0052B09D0524B1A6A75
:101B000022F001021A621A6A22F004021A62E0E765
:101B10004D4B1A6A42F004021A621A6A42F001023C
:101B20001A62D6E7FFF75CFE0646474B1B6A13F0C6
:101B3000020F08D0FFF754FE801B41F28833984211
:101B4000F3D9032077E0E5B9E369002B72D03E4A70
:101B5000526802F00C02082A56D0022B17D03B4BD9
:101B600000221A66FFF73CFE0446374B1B6813F051
:101B7000007F47D0FFF734FE001B0228F5D9032071
:101B800059E0314AD36923F08053D361DCE72F4B0E
:101B900000221A66FFF724FE05462B4B1B6813F044
:101BA000007F06D0FFF71CFE401B0228F5D903205A
:101BB00041E0236AB3F5803F1AD023494B6823F4F0
:101BC0007413226A606A024313434B601F4B012265
:101BD0001A66FFF705FE04461B4B1B6813F0007FD7
:101BE0000ED1FFF7FDFD001B0228F5D9032022E0EE
:101BF000154A536823F40033A1680B435360DCE7B4
:101C0000002018E0002016E0012B16D00E4B5B6878
:101C100003F48031226A914211D103F47013626A95
:101C200093420ED1002006E001207047012002E01F
:101C3000012000E0002002B070BD0120FBE7012080
:101C4000F9E70120F7E700BF001002400000424220
:101C50000F4B5B6803F00C02082A01D00D48704757
:101C6000C3F383420C49885C13F4803F0BD0084BCC
:101C70005B68C3F34043094AD35C064A02FB00F0A9
:101C8000B0FBF3F07047064B03FB00F0704700BF5A
:101C90000010024000127A00FC3E00080C3F0008D1
:101CA00000093D00002800F0A08070B50D460446F4
:101CB000524B1B6803F007038B420BD24F4A136849
:101CC00023F007030B431360136803F007038B42F1
:101CD00040F08D80236813F0020F17D013F0040F2B
:101CE00004D0474A536843F4E0635360236813F019
:101CF000080F04D0424A536843F460535360404A8B
:101D0000536823F0F003A1680B435360236813F07A
:101D1000010F31D06368012B20D0022B25D0384A27
:101D2000126812F0020F64D035494A6822F00302AB
:101D300013434B60FFF754FD0646314B5B6803F0DD
:101D40000C036268B3EB820F16D0FFF749FD801BCE
:101D500041F288339842F0D9032045E0284A1268BE
:101D600012F4003FE0D101203EE0254A126812F053
:101D7000007FD9D1012037E0204B1B6803F0070317
:101D8000AB420AD91D4A136823F007032B431360A3
:101D9000136803F00703AB422DD1236813F0040F3F
:101DA00006D0174A536823F4E063E1680B4353609D
:101DB000236813F0080F07D0114A536823F46053C7
:101DC000216943EAC1035360FFF742FF0C4B5B6894
:101DD000C3F303130B4AD35CD8400B4B18600B4B77
:101DE0001868FFF7B9FC002070BD01207047012082
:101DF000FAE70120F8E70120F6E700BF00200240E3
:101E000000100240103F00080C00002008000020D5
:101E1000014B1868704700BF0C00002008B5FFF7A1
:101E2000F7FF044B5B68C3F30223034AD35CD8403B
:101E300008BD00BF00100240203F000808B5FFF7B2
:101E4000E7FF044B5B68C3F3C223034AD35CD8406B
:101E500008BD00BF00100240203F000870B582B0EE
:101E60000024A446A6E0804DAA4210D007D97F4D99
:101E7000AA420CD005F58035AA4208D013E0A5F59A
:101E80008015AA4203D005F57025AA4207D18A68B9
:101E9000002A58D0012A51D04361082403E0A5F557
:101EA0008015AA42F3D0BEF1FF0F4ED80646BEF110
:101EB000FF0F4CD84FEA8C0233680F25954023EA78
:101EC000050304FA02F2134333604B6813F0805F9A
:101ED0006ED0674B9A6942F001029A619B6903F0E8
:101EE00001030193019B4FEA9C02951C614B53F83F
:101EF00025600CF003039D000F23AB4026EA030688
:101F00005D4B984229D003F58063984200F08E80A3
:101F100003F58063984200F08B8003F5806398425C
:101F200019D004231AE0CC68BDE7CC680434BAE7C2
:101F3000CC680834B7E7CC680C34B4E703610824F4
:101F4000B1E70024AFE70424ADE7061DAFE7ACF12D
:101F500008029200B0E7032300E00023AB403343C4
:101F60000232444D45F822304B6813F4801F61D093
:101F7000424A936843EA0E0393604B6813F4001FD0
:101F80005ED03E4AD36843EA0E03D3604B6813F435
:101F9000003F5BD0394A536843EA0E0353604B68F5
:101FA00013F4803F58D0354A136843EA0E03136098
:101FB0000CF1010C0A6832FA0CF353D0012303FA36
:101FC0000CF302EA030E33EA0202F1D14A68122A44
:101FD0003FF649AF122A3FF666AF01A555F822F049
:101FE0008F1E0008271F0008311F0008431F00082C
:101FF000A71E0008A71E0008A71E0008A71E0008AD
:10200000A71E0008A71E0008A71E0008A71E00089C
:10201000A71E0008A71E0008A71E0008A71E00088C
:10202000A71E00082B1F0008371F0008012395E793
:10203000022393E7114A936823EA0E0393609CE717
:102040000E4AD36823EA0E03D3609FE70B4A536816
:1020500023EA0E035360A2E7084A136823EA0E033B
:102060001360A5E702B070BD00002210000031101F
:10207000001002400000014000080140000401403F
:1020800060B310B402460168154B0B441548A0FB21
:1020900003031B099B001364134BD363022382F8D1
:1020A0002130086820F47F5020F030005368946895
:1020B0002343D46823431469234354692343946915
:1020C0002343D469234303430B600020906301231F
:1020D00082F8213082F8200010BC70470120704740
:1020E000F8FFFDBFCDCCCCCC0000024090F82130F1
:1020F000DBB2022B06D004238363002380F8203058
:10210000012070470268136823F00E031360026811
:10211000136823F001031360036CC16B012202FA00
:1021200003F34B6080F82120002380F8203018460C
:102130007047000008B590F82130DBB2022B03D0C5
:1021400004238363012008BD0268136823F00E0393
:1021500013600268136823F0010313600368194ACF
:10216000934214D0143293421FD0143293421ED0A3
:10217000143293421ED0143293421ED01432934232
:1021800002D04FF0807203E04FF4801200E0012291
:102190000D4B5A60012380F82130002380F8203055
:1021A000436B6BB198470020CDE71022F0E74FF466
:1021B0008072EDE74FF48052EAE74FF48032E7E7B0
:1021C0000020C0E7080002400000024038B5C36BA1
:1021D0001A6804682568016C04238B40134235D0CB
:1021E00015F0040F32D0236813F0200F03D12368B9
:1021F00023F0040323600368434A934214D014324B
:10220000934218D01432934217D01432934217D00D
:102210001432934217D01432934202D04FF08062AE
:1022200003E04FF4800200E00422384B5A60C36A96
:1022300003B1984738BD4022F7E74FF48062F4E7D6
:102240004FF48042F1E74FF48022EEE702238B4007
:1022500013423CD015F0020F39D0236813F0200F41
:1022600006D1236823F00A032360012380F821307C
:102270000368254A934214D0143293421CD014327E
:1022800093421BD0143293421BD0143293421BD082
:102290001432934202D04FF0007203E04FF4001268
:1022A00000E00222194B5A60002380F82030836A34
:1022B000002BBFD09847BDE72022F3E74FF4007210
:1022C000F0E74FF40052EDE74FF40032EAE708235D
:1022D00003FA01F11142ADD015F0080FAAD023681E
:1022E00023F00E032360026CC16B012303FA02F298
:1022F0004A60836380F82130002380F82030036B2C
:10230000002B97D0984795E7080002400000024054
:10231000074AD36823F4E0631B041B0C000200F49B
:10232000E060034343F0BF6343F40033D36070477E
:1023300000ED00E000B5194BDB68C3F30223C3F1E5
:10234000070CBCF1040F28BF4FF0040C03F1040E7E
:10235000BEF1060F18D9033B4FF0FF3E0EFA0CFCFE
:1023600021EA0C0199400EFA03F322EA0303194310
:1023700000280BDB0901C9B200F1604000F56140A3
:1023800080F800135DF804FB0023E5E700F00F0080
:102390000901C9B2024B1954F4E700BF00ED00E097
:1023A00014ED00E0002807DB00F01F0240090123C4
:1023B0009340024A42F82030704700BF00E100E03D
:1023C0000138B0F1807F0BD24FF0E0235861054A0D
:1023D000F02182F823100020986107221A617047CB
:1023E0000120704700ED00E07047000008B50A4882
:1023F0000A4B03604FF4E133436000238360C36002
:1024000003610C2242618361C36100F039F900B9B4
:1024100008BDFEF7F3FAFBE7F401002000380140A5
:1024200030B587B0002302930393049305930268A9
:102430001B4B9A4201D007B030BD03F558439A694F
:1024400042F480429A619A6902F480420092009AB2
:102450009A6942F004029A619B6903F004030193B4
:10246000019B4FF40073029302230393032305930C
:102470000C4D02A92846FFF7F1FC4FF4806302934C
:1024800000240394049402A92846FFF7E7FC22469F
:1024900021462520FFF74EFF2520FFF783FFCAE7DF
:1024A0000038014000080140026802F10C0353E8C3
:1024B000003F23F490730C3242E800310029F3D13D
:1024C000026802F1140353E8003F23F001031432C1
:1024D00042E800310029F3D1036B012B05D0202302
:1024E00080F84230002303637047026802F10C0356
:1024F00053E8003F23F010030C3242E8003100297A
:10250000F3D1ECE790F84130DBB2212B01D002206F
:1025100070478368B3F5805F17D0036A5A1C026264
:102520001A7803685A60C38C9BB2013B9BB2C38488
:102530004BB90268D36823F08003D3600268D36884
:1025400043F04003D360002070470369002BE4D1BF
:10255000036A1B880268C3F308035360036A0233EB
:102560000362E0E710B504460268136923F44053A0
:10257000C1680B43136183680269134342691A43BC
:102580000168CB6823F4B05323F00C031343CB60F2
:102590000268536923F4407381690B4353610268F5
:1025A000134B9A4220D0FFF739FC024602EB82021D
:1025B00002EB820263689B00B2FBF3F20D48A0FBC2
:1025C00002314909642303FB11231B013233A0FBB1
:1025D00003235B0903F0F00202EB011203F00F0387
:1025E000216813448B6010BDFFF728FC0246DDE72D
:1025F000003801401F85EB512DE9F84305460F4691
:1026000016469946DDF820802C68246837EA0403D2
:102610000CBF4FF0010C4FF0000CB4452DD1B8F1B8
:10262000FF3FF1D0B8F1000F05D0FFF7D9F8A0EBCC
:1026300009004045E8D92A6802F10C0353E8003F3D
:1026400023F4D0730C3242E800310029F3D12A6818
:1026500002F1140353E8003F23F00103143242E86F
:1026600000310029F3D1202385F8413085F842302C
:10267000002385F84030032000E00020BDE8F88307
:1026800060B310B5044690F8413013B3242384F8A6
:1026900041302268D36823F40053D3602046FFF70B
:1026A00061FF2268136923F4904313612268536920
:1026B00023F02A0353612268D36843F40053D360A4
:1026C00000206064202384F8413084F84230606345
:1026D00010BD80F84030FFF7A3FED7E70120704718
:1026E0002DE9F04182B01E4690F84130DBB2202B3C
:1026F0004BD104460D46904600294AD00AB9012024
:1027000044E000234364212380F84130FFF768F858
:102710000746A4F82480A4F82680A368B3F5805F58
:1027200002D04FF000080FE02369FBB14FF0000822
:102730000AE038F8023B2268C3F308035360E28CD6
:1027400092B2013A92B2E284E38C9BB28BB10096D2
:102750003B46002280212046FFF74EFFD8B9002DCE
:10276000E7D015F8012B23685A60E8E7A846002552
:10277000EAE700963B46002240212046FFF73CFF57
:1027800058B9202384F8413000E0022002B0BDE8AF
:10279000F0810120FAE70320F8E70320F6E770470D
:1027A00008B50168CA6822F04002CA60202280F899
:1027B0004120FFF7F4FF002008BD704708B5406ACC
:1027C0000023C385C384FFF7F8FF08BD704790F866
:1027D0004230DBB2222B69D18368B3F5805F4FD0E2
:1027E000826AB3F5805F04D0002B56D10369002BB9
:1027F00053D103685B681370836A01338362C38DAE
:102800009BB2013B9BB2C385002B51D100B583B075
:102810000268D36823F02003D3600268D36823F4EE
:102820008073D3600268536923F00103536120234E
:1028300080F8423000234363036B012B33D1002324
:102840000363026802F10C0353E8003F23F0100316
:102850000C3242E800310029F3D103681A6812F003
:10286000100F06D0002201921A6801925B68019352
:10287000019B818DFFF7AAFF002003B05DF804FBE8
:102880000269002AACD1826A03685B68C3F308035B
:102890001380836A02338362B1E703685B6803F0E5
:1028A0007F031370A8E7FEF769F8E5E70220704799
:1028B0000020704730B583B0044602681368D068C2
:1028C000516913F00F0505D113F0200F02D010F05D
:1028D000200F19D12DB111F0010119D110F4907F01
:1028E00016D1216B01297DD013F0800F03D010F099
:1028F000800F40F0188113F0400F03D010F0400F0C
:1029000040F0158103B030BD2046FFF760FFF9E7C6
:1029100013F0010F06D010F4807F03D0626C42F0F8
:102920000102626413F0040F04D019B1626C42F02A
:102930000202626413F0020F04D019B1626C42F01B
:102940000402626413F0080F07D010F0200F00D1CA
:1029500019B1626C42F008026264626C002AD1D044
:1029600013F0200F02D010F0200F29D123685B69EB
:1029700003F04003626C12F0080F00D163B32046ED
:10298000FFF792FD23685B6913F0400F20D02268A7
:1029900002F1140353E8003F23F04003143242E8ED
:1029A00000310029F3D1E36B73B1634A5A63E06BE2
:1029B000FFF7C0FB0028A5D0E06B436B9847A1E769
:1029C0002046FFF704FFD1E72046FFF7F6FE99E720
:1029D0002046FFF7F2FE95E72046FFF7EEFE0023C4
:1029E00063648FE713F0100F3FF47EAF10F0100F09
:1029F0003FF47AAF00230193136801935368019366
:102A0000019B536913F0400F51D0E26B13685B6870
:102A10009BB2002B3FF476AFA18D99427FF672AF47
:102A2000E3859369202B37D0226802F10C0353E829
:102A3000003F23F480730C3242E800310029F3D1C7
:102A4000226802F1140353E8003F23F0010314321B
:102A500042E800310029F3D1226802F1140353E85F
:102A6000003F23F04003143242E800310029F3D143
:102A7000202384F8423000232363226802F10C03F0
:102A800053E8003F23F010030C3242E800310029E4
:102A9000F3D1E06BFFF72AFB02236363A18DE38D83
:102AA0009BB2C91A89B22046FFF790FE2AE7A18D92
:102AB000E38D9BB2C91A89B2E38D9BB2002B3FF420
:102AC00021AF00293FF41EAF226802F10C0353E846
:102AD000003F23F490730C3242E800300028F3D119
:102AE000226802F1140353E8003F23F0010314327B
:102AF00042E800300028F3D1202384F8423000233C
:102B00002363226802F10C0353E8003F23F0100313
:102B10000C3242E800300028F3D1022363632046E0
:102B2000FFF754FEEEE62046FFF7ECFCEAE620460F
:102B3000FFF736FEE6E600BFBD270008816282850A
:102B4000C28500234364222380F84230036923B105
:102B50000268D36843F48073D3600268536943F01A
:102B6000010353610268D36843F02003D36000205F
:102B7000704708B590F84230DBB2202B08D149B13C
:102B80000AB9012008BD00230363FFF7D7FFF9E767
:102B90000220F7E70120F5E7FFF726FC0B480C4978
:102BA0000C4A002302E0D458C4500433C4188C42A9
:102BB000F9D3094A094C002301E013600432A24210
:102BC000FBD300F013F8FDF74FFF70470000002023
:102BD000740000209C410008740000205002002076
:102BE000FEE70A22002100F005B9000070B50026BA
:102BF0000C4D0D4C641BA410A64209D101F05AF9EA
:102C000000260A4D0A4C641BA410A64205D170BDD3
:102C100055F8043B98470136EEE755F8043B9847D2
:102C20000136F2E7944100089441000894410008FD
:102C30009841000803460244934200D1704703F8CC
:102C4000011BF9E7164B2DE9F0411F680546BC6DE5
:102C50000E46ECB9502000F00DF90246B86520B9D7
:102C60005721104B104800F0CFF8C0E90044C0E9EC
:102C70000244C0E90444C0E90A44C0E90C44C0E984
:102C80000E44C0E91044C0E91244846104774462F0
:102C900031462846BA6D0123BDE8F04100F006B880
:102CA000100000202C3F0008433F0008F0B508B991
:102CB000106888B104460F46204614F8015B17F8E7
:102CC000016B1EB965B92846156005E0B542F6D11D
:102CD000002BF0D114600370F0BD1C460CE015B958
:102CE0000E4614F8013B16F8015BAB42F7D1002BFE
:102CF000F3D0002304F8013C1460EDE7012B2DE92B
:102D0000F047804601D0242B06D900F09BF816230B
:102D100003600020BDE8F0870D46354F284615F8C2
:102D2000014BE65D16F00806F8D12D2C2FD10126B7
:102D30002C78851C002B57D0102B09D1302C07D1B3
:102D4000287800F0DF00582849D110236C7802352C
:102D5000002706F1004E0EF1FF3EBEFBF3F93846A8
:102D600003FB19EAA4F1300CBCF1090F14D8644636
:102D7000A34222DD002F1DDB81451BD301D1A245DB
:102D800018DB012700FB034015F8014BEAE72B2C69
:102D900004BF2C78851CCDE7A4F1410CBCF1190FC0
:102DA00001D8373CE4E7A4F1610CBCF1190F04D859
:102DB000573CDDE74FF0FF37E6E7002F07DA222325
:102DC0007046C8F80030002AA4D0691E05E006B19C
:102DD0004042002A9ED0002FF7D111609AE730249C
:102DE000002BB5D10823B3E7302CA9D00A23AFE7D5
:102DF0000040000813460A46014602480068FFF7F3
:102E00007DBF00BF100000201FB514461A46094BB5
:102E100005461B68D8684CB1074BCDE901340091D9
:102E20002B46064900F014F800F0C6FC044B1C4683
:102E3000F3E700BF10000020C33F0008D03F0008A8
:102E4000FE3F0008014B1868704700BF10000020CB
:102E50000EB403B5014603AB054853F8042B0068D4
:102E6000019300F013F902B05DF804EB03B0704772
:102E700010000020024B0146186800F06BB800BF3C
:102E80001000002038B50546002940D051F8043C18
:102E90000C1F002BB8BFE41800F0C0FE1C4A1368DA
:102EA00033B9636014602846BDE8384000F0BCBE0A
:102EB000A34208D9206821188B4201BF19685B68BA
:102EC00009182160EDE71A465B680BB1A342FAD9F5
:102ED00011685018A0420BD1206801445018834259
:102EE0001160E0D118685B68014411605360DAE753
:102EF00002D90C232B60D6E7206821188B4201BF32
:102F000019685B680918216063605460CBE738BDBD
:102F10003C02002070B50E4E0C463168054611B9D2
:102F200000F07AFB30602146284600F075FB431C18
:102F30000AD0C41C24F00304A04207D0211A28465A
:102F400000F06AFB013001D14FF0FF34204670BD24
:102F5000400200202DE9F041CD1C25F00305083585
:102F60000C2D38BF0C25002D074601DBA94205D9E1
:102F70000C2300263B603046BDE8F0812E4E00F069
:102F80004DFE33681C4634BB29463846FFF7C2FF66
:102F9000431C04464DD134682646002E40D1236898
:102FA0003146384604EB030800F036FB80453AD141
:102FB000216803356D1A25F0030508350C2D38BF3F
:102FC0000C2538462946FFF7A5FF01302BD0236892
:102FD0002B4423600EE02268521B1ED40B2A16D904
:102FE0006119A342256018BF5960636808BF31604A
:102FF00062514B60384604F10B0600F015FE26F0D6
:103000000706231DF21AB6D09B1BA350B3E76268D4
:10301000A3420CBF32605A60ECE723466468B2E713
:1030200034467668B9E70C2338463B6000F0FCFD77
:10303000A1E72560DEE700BF3C020020936810B4E2
:10304000013B002B936007DA9469A34201DB0A2954
:1030500002D110BC00F0F0BA1368581C106019704F
:10306000084610BC7047F8B506460F461446D518FA
:10307000AC4201D1002007E03A46304614F8011B6B
:10308000FFF7DCFF431CF3D1F8BD00002DE9F04F42
:103090000D461446984606469DB018B183690BB993
:1030A00000F0A8FC894B9D421BD175686B6ED90757
:1030B00005D4AB899A0502D4A86D00F039FDAB891F
:1030C0001B0701D52B69EBB92946304600F006FBFA
:1030D000C0B16B6EDC070ED54FF0FF301DB0BDE800
:1030E000F08F7B4B9D4201D1B568DFE7794B9D4264
:1030F00008BFF568DAE7AB899805EDD4A86D00F054
:1031000018FDE9E70023099320238DF829303023A7
:103110004FF00109CDF80C80DFF8BC818DF82A3022
:1031200023469A4613F8012B0AB1252AF9D1BAEBA6
:10313000040B0BD05B46224629463046FFF793FF2F
:10314000013000F0AA80099A5A4409929AF8003096
:10315000002B00F0A28000234FF0FF32CDE90523C1
:103160000AF1010A049307938DF853301A935446D9
:10317000052214F8011B584800F042FD049AD8B902
:10318000D10644BF20238DF85330130744BF2B23AF
:103190008DF853309AF800302A2B15D05446002071
:1031A0004FF00A0C079A214611F8013B303B092BDE
:1031B0004ED9B0B1079214E0A0EB080309FA03F36B
:1031C0001343A2460493D2E7039B191D1B68039186
:1031D000002BBBBF5B4242F0020207930793B8BFCC
:1031E000049223782E2B0CD163782A2B35D1039BA4
:1031F00002341A1D1B680392002BB8BF4FF0FF3337
:103200000593DFF8D8A003225046217800F0F8FC9F
:1032100040B14023A0EB0A0003FA00F0049B013404
:103220000343049314F8011B06222D488DF828103F
:1032300000F0E6FC00283FD02A4B1BBB039B073362
:1032400023F0070308330393099B3B44099367E783
:103250000C4601200CFB0232A5E700234FF00A0CBC
:10326000194601340593204610F8012B303A092AFB
:1032700003D9002BC5D00591C3E7044601230CFBFD
:103280000121F0E703AB00932A463046164B04A910
:10329000AFF300800746781CD6D16B6ED90705D4F2
:1032A000AB899A0502D4A86D00F043FCAB895B069C
:1032B0003FF512AF099811E703AB00932A46304659
:1032C000094B04A900F082F8E4E700BF544100086C
:1032D000744100083441000800410008064100081C
:1032E0000A41000800000000673000082DE9F0479F
:1032F000164699468A680B6907469342B8BF13463B
:10330000336091F843200C46DDF820800AB1013388
:1033100033602368990642BF3368023333602568FF
:1033200015F0060506D104F1190AE36832689B1A04
:10333000AB4228DC94F84320131E226818BF0123F7
:1033400092062DD44946384604F14302C047013065
:1033500020D02368E56803F00603042B18BF00257E
:1033600032684FF00006A36808BFAD1A226908BF93
:1033700025EAE5759342C4BF9B1AED181A34B5428D
:103380001AD1002008E00123524649463846C0477A
:10339000013003D14FF0FF30BDE8F0870135C4E7BD
:1033A0003020E11881F843005A1C94F8451022445B
:1033B000023382F84310C5E70123224649463846C6
:1033C000C0470130E6D00136D9E700002DE9FF47BC
:1033D0000F7E9146782F80460C469A460C9D01F14F
:1033E000430207D8622F0AD8002F00F0D980582F47
:1033F00000F0A48004F1420584F842703AE0A7F19D
:103400006303152BF6D801A151F823F065340008A9
:1034100079340008F5330008F5330008F533000867
:10342000F533000879340008F5330008F533000857
:10343000F5330008F533000887350008A934000883
:1034400069350008F5330008F5330008A935000890
:10345000F5330008A9340008F5330008F5330008F7
:10346000713500082B681A1D1B682A6004F142059B
:1034700084F842300123A4E020682968060601F19F
:1034800004030AD50E682B60002E03DA2D23764242
:1034900084F843300A235E4819E00E6810F0400FAC
:1034A0002B6018BF36B2EFE72B682068191D296022
:1034B000010601D51E6802E04606FBD51E886F2F67
:1034C0000CBF08230A235248002184F84310656882
:1034D000002DA8BF2168A560A4BF21F004012160D0
:1034E0000EB9002D4DD01546B6FBF3F103FB116765
:1034F000C75D05F8017D3746BB420E46F4D9082B5F
:103500000BD12368DE0708D5236961689942DEBFC5
:10351000302305F8013C05F1FF35521B22614B4673
:1035200021464046CDF800A003AAFFF7DFFE013098
:103530004CD14FF0FF3004B0BDE8F087344881F83B
:1035400045702968236851F8046B29601D0614D55D
:10355000DF0744BF43F0200323601EB9236823F034
:10356000200323601023AFE7236843F02003236088
:103570007823284884F84530E3E7590648BFB6B2B7
:10358000E6E71546BBE72B682668181D61692860C9
:1035900035061B6801D5196002E07006FBD519805D
:1035A000002315462361BAE72B6800211A1D2A6003
:1035B0001D686268284600F023FB08B1401B60606C
:1035C00063682361002384F84330A8E72A4649460C
:1035D00040462369D0470130ABD023689B0713D402
:1035E000E068039B9842B8BF1846A4E7012332461F
:1035F00049464046D04701309BD00135E3680399E6
:103600005B1AAB42F2DCEBE7002504F11906F5E7A3
:10361000114100082241000838B50023054D044639
:1036200008462B6000F02EFC431C02D12B6803B12E
:10363000236038BD48020020F8B50E461446054602
:1036400018B183690BB900F0D5F9214B9C422BD1FD
:103650006C68A369A360A3891A072FD523696BB38C
:1036600023692068F6B2C01A63693746834204DCD6
:103670002146284600F02AF930BBA3680130013BFF
:10368000A36023685A1C22601E706369834204D0C1
:10369000A389DB0706D50A2E04D12146284600F06F
:1036A00015F988B93846F8BD0A4B9C4201D1AC687F
:1036B000CFE7094B9C4208BFEC68CAE72146284681
:1036C00000F00CF80028CBD04FF0FF37EAE700BF3E
:1036D000544100087441000834410008324B70B571
:1036E0001D6806460C4625B1AB6913B9284600F0A3
:1036F00081F92E4B9C420FD16C68A389B4F90C2040
:1037000019072CD4DD0611D40923336042F040039D
:103710004FF0FF30A3813EE0254B9C4201D1AC68C5
:10372000EBE7244B9C4208BFEC68E6E7580712D54C
:10373000616B41B104F14403994202D03046FFF776
:10374000A1FB00236363A38923F02403A381002347
:10375000636023692360A38943F00803A38123697D
:103760004BB9A38903F42073B3F5007F03D021463E
:10377000304600F005FAA089B4F90C2010F00103DE
:103780000AD00023A36063695B42A361236943B944
:1037900010F08000BAD170BD810758BF6369A36083
:1037A000F4E70020F7E700BF1000002054410008B4
:1037B0007441000834410008062008B500F062FAA0
:1037C000012000F075FB00008A89F8B50546100756
:1037D0000C4657D44B68002B04DC0B6C002B01DC2F
:1037E0000020F8BDE66A002EFAD0002312F48052C1
:1037F0002F682B6032D0606DA3895A0705D56368A6
:10380000C01A636B0BB1236CC01A00230246E66A30
:103810002846216AB047431CA38906D129681D297F
:103820002CD8294ACA40D60728D5002262602269CE
:10383000D904226004D5421C01D12B6803B960650C
:10384000616B2F600029CBD004F14403994202D070
:103850002846FFF717FB00206063C2E7216A0123B7
:103860002846B047411CC7D12B68002BC4D01D2B64
:1038700001D0162B01D12F60B2E7A38943F040039A
:10388000A381AEE70F69002FAAD0930718BF0023CA
:103890000E6808BF4B69F61B0F608B60002E9FDD22
:1038A00033463A462846216AD4F828C0E047002823
:1038B00006DCA3894FF0FF3043F04003A38190E77B
:1038C0000744361AEAE700BF0100402038B50B690B
:1038D00005460C4613B90025284638BD18B1836942
:1038E0000BB900F087F8144B9C421BD16C68B4F9FB
:1038F0000C30002BEFD0626ED00704D4990502D4AF
:10390000A06D00F015F928462146FFF75DFF636EB4
:103910000546DA07E0D4A3899B05DDD4A06D00F04D
:1039200008F9D9E7054B9C4201D1AC68DFE7044BAD
:103930009C4208BFEC68DAE7544100087441000873
:1039400034410008002310B50446C0E90033C0E943
:103950000433836081814366C281836119460822F2
:103960005C30FFF767F9054B24626362044BA36286
:10397000044BE362044B236310BD00BFBD3C000851
:10398000DF3C0008173D00083B3D0008014900F0FE
:10399000AFB800BFCD380008682270B54D1E554342
:1039A0000E4605F17401FFF7D5FA044640B1002137
:1039B000C0E900160C30A06005F16802FFF73AF983
:1039C000204670BD014800F0B3B800BF450200209A
:1039D000014800F0AEB800BF45020020014800F0E9
:1039E000A7B800BF46020020014800F0A2B800BFFF
:1039F0004602002010B50446FFF7F0FFA3691BB193
:103A0000BDE81040FFF7F0BFC4E912332365134B44
:103A1000134A1B68A262A34208BF0123204608BFC5
:103A2000A36100F01FF86060204600F01BF8A06062
:103A3000204600F017F800220421E0606068FFF7DC
:103A400081FF01220921A068FFF77CFF02221221D9
:103A5000E068FFF777FF0123A361D1E7283F000863
:103A60008D390008F8B50746FFF7ACFF1E4B1E68FE
:103A7000B36913B93046FFF7BDFF4836D6E90134C4
:103A8000013B03D533680BB33668F7E7B4F90C5044
:103A9000D5B9164B04F15800E360656600F047F8AD
:103AA000FFF796FF08222946C4E90155C4E90455E9
:103AB0002560A56104F15C00FFF7BCF8C4E90D5571
:103AC000C4E912552046F8BD6834D9E704213846C8
:103AD000FFF762FF044630600028D5D1FFF778FF7A
:103AE0000C233B60EEE700BF283F00080100FFFF0A
:103AF0002DE9F84306468846002700F14804D4E93A
:103B00000195B9F1010905D52468002CF7D1384693
:103B1000BDE8F883AB89012B07D9B5F90E30013325
:103B200003D029463046C04707436835E9E7704768
:103B30007047704770B50E46B1F90E101446002953
:103B40001D4696B008DA0022B6F90C302A601A0633
:103B500010D44FF480630EE06A4600F015F9002897
:103B6000F1DB019A02F47042A2F500535A425A4125
:103B70002A60EEE740230020236016B070BD0000ED
:103B80008B8973B59D0706460C4607D504F147039C
:103B9000236023610123636102B070BD6A4601ABFB
:103BA000FFF7C8FF009905463046FFF7D3F948B93B
:103BB000B4F90C309A05EFD423F0030343F0020369
:103BC000A381E3E70D4BB362A389206043F0800338
:103BD000A381009B20616361019B5BB13046B4F916
:103BE0000E1000F0E3F828B1A38923F0030343F09B
:103BF0000103A381A0890543A581CDE78D39000884
:103C0000034610B5C9B202449342184601D10020C0
:103C100003E0047801338C42F6D110BD0148FFF770
:103C200087BF00BF440200200148FFF782BF00BFEA
:103C3000440200201F2938B504460D4604D9162336
:103C400003604FF0FF3038BD426C12B152F82130A2
:103C50004BB9204600F030F82A4601462046BDE820
:103C6000384000F017B8012B0AD0591C03D1162395
:103C700003600120E7E70024284642F825409847E2
:103C80000020E0E7024B01461868FFF7D3BF00BFF2
:103C90001000002038B50023064D044608461146A2
:103CA0002B6000F0D7F8431C02D12B6803B12360CE
:103CB00038BD00BF4802002000F0BCB810B50C466B
:103CC000B1F90E1000F094F80028ABBF636DA38922
:103CD0001B1823F48053ACBF6365A38110BD2DE98D
:103CE000F0411F468B890546DB050C46164605D577
:103CF00002230022B1F90E1000F068F8A3893246C1
:103D000023F48053A38128463B46B4F90E10BDE846
:103D1000F04100F017B810B50C46B1F90E1000F0E4
:103D200055F8431CA38915BF606523F4805343F401
:103D30008053A38118BFA38110BDB1F90E1000F00C
:103D400013B8000038B50446084611460022054D58
:103D50002A601A4600F0A4F8431C02D12B6803B174
:103D6000236038BD4802002038B50023054D0446C5
:103D700008462B6000F04EF8431C02D12B6803B1BB
:103D8000236038BD4802002038B50023064D0446A4
:103D9000084611462B6000F045F8431C02D12B6801
:103DA00003B1236038BD00BF4802002038B50023AE
:103DB000054D044608462B6000F044F8431C02D130
:103DC0002B6803B1236038BD4802002038B5044693
:103DD000084611460022054D2A601A4600F042F8B6
:103DE000431C02D12B6803B1236038BD4802002078
:103DF00038B50446084611460022054D2A601A4689
:103E000000F038F8431C02D12B6803B1236038BDA1
:103E1000480200205822024B4FF0FF301A607047D2
:103E2000480200205822024B4FF0FF301A607047C2
:103E3000480200205822024B4FF0FF301A607047B2
:103E4000480200205822024B00201A60704700BF31
:103E5000480200205822024B4FF0FF301A60704792
:103E6000480200205822024B4FF0FF301A60704782
:103E7000480200205822024B4FF0FF301A60704772
:103E800048020020044A05491368002B08BF0B466E
:103E900018441060184670474C0200205002002061
:103EA0005822024B4FF0FF301A6070474802002042
:103EB000FEE700BFF8B500BFF8BC08BC9E467047DF
:0C3EC000F8B500BFF8BC08BC9E46704777
:103ECC006D616E75616C00006175746F00000000AF
:103EDC0064756D610000000073746F700000000069
:103EEC000A6F6B6500000000260000002F00000028
:103EFC0002030405060708090A0B0C0D0E0F10101F
:103F0C000102000000000000000000000102030498
:103F1C000607080900000000010203041400002039
:103F2C005245454E54206D616C6C6F632073756304
:103F3C00636565646564002F6D6E742F776F726BAB
:103F4C0073706163652F776F726B73706163652F2C
:103F5C004743432D31302D706970656C696E652F48
:103F6C006A656E6B696E732D4743432D31302D702E
:103F7C006970656C696E652D3333385F3230323160
:103F8C00313031385F313633343531363230332FCE
:103F9C007372632F6E65776C69622F6E65776C69CF
:103FAC00622F6C6962632F737472696E672F7374FE
:103FBC0072746F6B2E63002C2066756E6374696F60
:103FCC006E3A2000617373657274696F6E202225DE
:103FDC007322206661696C65643A2066696C6520A1
:103FEC00222573222C206C696E652025642573258F
:103FFC00730A0000202020202020202020282828A0
:10400C002828202020202020202020202020202094
:10401C0020202020881010101010101010101010DC
:10402C0010101010040404040404040404041010FC
:10403C001010101010414141414141010101010199
:10404C000101010101010101010101010101011045
:10405C00101010101042424242424202020202026E
:10406C000202020202020202020202020202021016
:10407C0010101020000000000000000000000000E4
:10408C000000000000000000000000000000000024
:10409C000000000000000000000000000000000014
:1040AC000000000000000000000000000000000004
:1040BC0000000000000000000000000000000000F4
:1040CC0000000000000000000000000000000000E4
:1040DC0000000000000000000000000000000000D4
:1040EC0000000000000000000000000000000000C4
:1040FC0000000000232D302B2000686C4C006566FE
:10410C00674546470030313233343536373839411C
:10411C004243444546003031323334353637383932
:10412C00616263646566000000000000000000002E
:10413C000000000000000000000000000000000073
:10414C000000000000000000000000000000000063
:10415C000000000000000000000000000000000053
:10416C000000000000000000000000000000000043
:10417C000000000000000000000000000000000033
:08418C0000000000000000002B
:0441940035010008E9
:044198001101000809
:10419C002D00000001000000100000000024F400BD
:1041AC001400002000000000544100087441000875
:1041BC003441000800000000000000000000000076
:1041CC0000000000000000000000000000000000E3
:1041DC0000000000000000000000000000000000D3
:1041EC0000000000000000000000000000000000C3
:1041FC0000000000000000000000000000000000B3
:04420C0000000000AE
:0400000508002B992B
:00000001FF
